:100000000C942A000C9434000C9434000C943400AA
:100010000C9434000C9434000C9434000C94340090
:100020000C9434000C9434000C9434000C94340080
:100030000C9434000C9434000C9434000C94340070
:100040000C9434000C9434000C9434000C94340060
:100050000C94340011241FBECFE5D8E0DEBFCDBF25
:100060000E949B030C94E7030C9400008DE78ABB6D
:100070008FEF87BB84BB81BB1BBA18BA15BA12BA03
:100080000895813049F1813038F0823009F444C05C
:10009000833009F07EC05FC0442381F0413009F015
:1000A00078C0EAE3F0E0208181E090E002C0880FB0
:1000B000991F6A95E2F7282B20830895EAE3F0E080
:1000C000208181E090E002C0880F991F6A95E2F7D5
:1000D0008095822380830895442381F0413009F084
:1000E00058C0E7E3F0E0208181E090E002C0880F93
:1000F000991F6A95E2F7282B20830895E7E3F0E043
:10010000208181E090E002C0880F991F6A95E2F794
:100110008095822380830895442379F04130C9F586
:10012000E4E3F0E0208181E090E002C0880F991FB5
:100130006A95E2F7282B20830895E4E3F0E020811C
:1001400081E090E002C0880F991F6A95E2F78095E0
:10015000822380830895442379F04130D1F4E1E390
:10016000F0E0208181E090E002C0880F991F6A953D
:10017000E2F7282B20830895E1E3F0E0208181E07D
:1001800090E002C0880F991F6A95E2F7809582235C
:1001900080830895813049F1813038F0823009F44C
:1001A00044C0833009F07EC05FC0442381F04130F9
:1001B00009F078C0EBE3F0E0208181E090E002C03C
:1001C000880F991F6A95E2F7282B20830895EBE3A7
:1001D000F0E0208181E090E002C0880F991F6A95CD
:1001E000E2F78095822380830895442381F0413093
:1001F00009F058C0E8E3F0E0208181E090E002C01F
:10020000880F991F6A95E2F7282B20830895E8E369
:10021000F0E0208181E090E002C0880F991F6A958C
:10022000E2F78095822380830895442379F041305A
:10023000C9F5E5E3F0E0208181E090E002C0880F9D
:10024000991F6A95E2F7282B20830895E5E3F0E0F3
:10025000208181E090E002C0880F991F6A95E2F743
:100260008095822380830895442379F04130D1F42E
:10027000E2E3F0E0208181E090E002C0880F991F66
:100280006A95E2F7282B20830895E2E3F0E02081CD
:1002900081E090E002C0880F991F6A95E2F780958F
:1002A000822380830895813089F0813030F082305C
:1002B000B1F08330E9F080E0089589B390E002C0A6
:1002C000959587956A95E2F78170089586B390E0D9
:1002D00002C0959587956A95E2F78170089583B37A
:1002E00090E002C0959587956A95E2F78170089530
:1002F00080B390E002C0959587956A95E2F781708A
:100300000895813049F0813028F0823039F083300F
:1003100041F406C06BBB089568BB089565BB0895A2
:1003200062BB0895813049F0813028F0823039F085
:10033000833041F406C06ABB089567BB089564BB6F
:10034000089561BB0895813011F082E0089581E045
:100350000895EF92FF920F931F93082F192F7B019F
:100360000E9412031065812F0E944E03802F0E946D
:1003700073030E942B03812F0E946003C7010E9418
:1003800084030E94A301182F0E94440380E197E296
:100390000197F1F7812F1F910F91FF90EF90089532
:1003A000FF920F931F93082F192FF62E0E9412030E
:1003B000812F80650E944E03802F0E9473038F2D32
:1003C0000E9473030E94A301182F0E94440380E13E
:1003D00097E20197F1F7812F1F910F91FF900895F8
:1003E000EFE5F0E08081806880830895EFE5F0E03C
:1003F00080818F77808308951F93182F81E060E0BC
:1004000041E00E94CA0081E061E040E00E94CA0031
:1004100083E0612F0E94810181E062E041E00E945F
:10042000CA0080EA9FE00197F1F781E062E040E0D6
:100430000E94CA001F910895AF92BF92CF92DF929F
:10044000EF92FF920F931F935B016C016115710591
:100450008105910559F480E30E94FC0151C081E0BF
:10046000E816F1040105110559F54AC0EE24FF24F0
:100470008701E394C801B7012AE030E040E050E092
:100480000E94A6037B018C01C601B5010E94C50331
:10049000E60EF71E081F191FC601B5012AE030E05D
:1004A00040E050E00E94C503822F932FA42FB52F68
:1004B0005C016D01A114B104C104D104D9F6CFCF00
:1004C000C801B7012AE030E040E050E00E94C503D7
:1004D000862F805D0E94FC01C801B7012AE030E050
:1004E00040E050E00E94C503822F932FA42FB52F28
:1004F0007C018D0181E0E816F1040105110501F789
:100500001F910F91FF90EF90DF90CF90BF90AF9031
:100510000895CF93DF93EC018881882331F02196F1
:100520000E94FC0188818823D1F7DF91CF91089543
:100530001F93182F81E060E040E00E94CA0081E034
:1005400061E040E00E94CA0083E0612F0E948101C7
:1005500081E062E041E00E94CA0080EA9FE00197EA
:10056000F1F781E062E040E00E94CA001F91089527
:10057000813019F0823051F405C0862F81580E94D5
:10058000980204C0862F81540E94980280ED97E063
:100590000197F1F7089581E00E94980280EA9FE0B8
:1005A0000197F1F708950F931F9380E69AEE019754
:1005B000F1F788E30E94980200ED17E0C801019767
:1005C000F1F78FE00E949802C8010197F1F781E0EE
:1005D0000E94980280EA9FE00197F1F786E00E946E
:1005E00098021F910F910895E1E2F0E080818E7FE3
:1005F000808380818D7F80838CE080B9E6E5F0E0A8
:100600008081806480838081846080830895880FE6
:1006100082B9E6E5F0E08081806480838081846037
:1006200080830895E6E5F0E08081806880838081A2
:100630008062808380818823ECF781B1887F883055
:1006400011F093E001C091E0E6E5F0E080818F7D5C
:100650008083892F0895E6E5F0E0808180688083BB
:1006600080818062808380818823ECF781B1887FDC
:10067000803111F094E001C091E0E6E5F0E0808186
:100680008F7D8083892F0895E6E5F0E08081806882
:10069000808380818061808381E00895880F83B9A1
:1006A000E6E5F0E080818068808380818823ECF734
:1006B00081B1887F883111F085E0089581E0089547
:1006C000880F816083B9E6E5F0E0808180688083EF
:1006D00080818823ECF781B1887F803411F086E037
:1006E000089581E0089583B9E6E5F0E080818068AF
:1006F000808380818823ECF781B1887F883211F074
:1007000087E0089581E00895DC01009711F489E005
:100710000895E6E5F0E08081806880838081882309
:10072000ECF781B1887F803511F088E0089583B1BE
:100730008C9381E008950E9436000E94D3020E94AB
:10074000F40285E090E00E941C02FFCF629FD0017E
:10075000739FF001829FE00DF11D649FE00DF11D7C
:10076000929FF00D839FF00D749FF00D659FF00D2B
:100770009927729FB00DE11DF91F639FB00DE11D18
:10078000F91FBD01CF0111240895A1E21A2EAA1B61
:10079000BB1BFD010DC0AA1FBB1FEE1FFF1FA21731
:1007A000B307E407F50720F0A21BB30BE40BF50B2E
:1007B000661F771F881F991F1A9469F760957095B7
:1007C000809590959B01AC01BD01CF010895F894EF
:0207D000FFCF59
:00000001FF
