:100000000C942A000C943F000C943F000C943F0089
:100010000C943F000C943F000C943F000C943F0064
:100020000C943F000C943F000C943F000C943F0054
:100030000C943F000C943F000C943F000C943F0044
:100040000C943F000C943F000C943F000C943F0034
:100050000C943F0011241FBECFE5D8E0DEBFCDBF1A
:1000600010E0A0E6B0E0E0E4F7E002C005900D92F9
:10007000A237B107D9F70E9452030C949E030C9447
:1000800000008DE78ABB8FEF87BB84BB81BB1BBAA7
:1000900018BA15BA12BA0895813029F1813038F0B2
:1000A000823009F43CC0833009F06EC053C0442351
:1000B00071F0413009F068C02AB381E090E002C0DD
:1000C000880F991F6A95E2F7282B2ABB08952AB357
:1000D00081E090E002C0880F991F6A95E2F7809551
:1000E00082238ABB0895442371F0413009F04CC04B
:1000F00027B381E090E002C0880F991F6A95E2F76C
:10010000282B27BB089527B381E090E002C0880F19
:10011000991F6A95E2F78095822387BB089544234F
:1001200069F0413089F524B381E090E002C0880F86
:10013000991F6A95E2F7282B24BB089524B381E028
:1001400090E002C0880F991F6A95E2F7809582239C
:1001500084BB0895442369F04130B1F421B381E0B8
:1001600090E002C0880F991F6A95E2F7282B21BB07
:10017000089521B381E090E002C0880F991F6A952D
:10018000E2F78095822381BB0895813029F1813087
:1001900038F0823009F43CC0833009F06EC053C09F
:1001A000442371F0413009F068C02BB381E090E046
:1001B00002C0880F991F6A95E2F7282B2BBB089580
:1001C0002BB381E090E002C0880F991F6A95E2F797
:1001D000809582238BBB0895442371F0413009F050
:1001E0004CC028B381E090E002C0880F991F6A9547
:1001F000E2F7282B28BB089528B381E090E002C0E5
:10020000880F991F6A95E2F78095822388BB08952D
:10021000442369F0413089F525B381E090E002C0C4
:10022000880F991F6A95E2F7282B25BB089525B3FF
:1002300081E090E002C0880F991F6A95E2F78095EF
:10024000822385BB0895442369F04130B1F422B381
:1002500081E090E002C0880F991F6A95E2F7282B91
:1002600022BB089522B381E090E002C0880F991F5D
:100270006A95E2F78095822382BB0895813051F020
:10028000813030F0823041F0833079F080E00895A1
:1002900089B303C086B301C083B390E002C09595D3
:1002A00087956A95E2F78170089580B390E002C067
:1002B000959587956A95E2F781700895813049F0A8
:1002C000813028F0823039F0833041F406C06BBBB6
:1002D000089568BB089565BB089562BB0895813099
:1002E00049F0813028F0823039F0833041F406C083
:1002F0006ABB089567BB089564BB089561BB089508
:10030000EF92FF920F931F93182F092F7B010E94EA
:10031000DB020065802F0E940D03812F0E942E03B7
:100320000E94F002802F0E941D03C7010E943D031E
:10033000813011F012E001C011E00E94050380E15C
:1003400097E20197F1F7812F1F910F91FF90EF90A6
:100350000895FF920F931F93182F092FF62E0E94D6
:10036000DB02802F80650E940D03812F0E942E03E7
:100370008F2D0E942E03813011F012E001C011E098
:100380000E94050380E197E20197F1F7812F1F9109
:100390000F91FF9008958FB780688FBF08958FB732
:1003A0008F778FBF08951F93182F81E060E041E0A1
:1003B0000E94C50081E061E040E00E94C50083E04A
:1003C000612F0E945E0181E062E041E00E94C50071
:1003D00080EA9FE00197F1F781E062E040E00E944F
:1003E000C5001F9108956F927F928F929F92AF9256
:1003F000BF92CF92DF92EF92FF920F931F933B0138
:100400004C01611571058105910519F480E30E9485
:10041000D30181E0A82EB12CC12CD12C20C0C60163
:10042000B5012AE030E040E050E00E945D037B012E
:100430008C01C401B3010E947C035B016C01AE0C12
:10044000BF1CC01ED11EC401B3012AE030E040E051
:1004500050E00E947C03C901DA013C014D016114A6
:10046000710481049104D9F618C0C601B5012AE0CF
:1004700030E040E050E00E947C03862F805D0E94C7
:10048000D301C601B5012AE030E040E050E00E940F
:100490007C03C901DA015C016D0181E0A816B10499
:1004A000C104D10411F71F910F91FF90EF90DF90DD
:1004B000CF90BF90AF909F908F907F906F90089556
:1004C000CF93DF93EC0103C021960E94D301888172
:1004D0008823D1F7DF91CF9108951F93182F81E0E2
:1004E00060E040E00E94C50081E061E040E00E94E1
:1004F000C50083E0612F0E945E0181E062E041E07F
:100500000E94C50080EA9FE00197F1F781E062E078
:1005100040E00E94C5001F910895813019F082309B
:1005200041F403C0862F815802C0862F81540E9457
:100530006D0280ED97E00197F1F7089581E00E9448
:100540006D0280EA9FE00197F1F708950F931F93E2
:1005500080E69AEE0197F1F788E30E946D0200EDC4
:1005600017E0C8010197F1F78FE00E946D02C80102
:100570000197F1F781E00E946D0280EA9FE0019708
:10058000F1F786E00E946D021F910F91089508987F
:1005900009988CE080B986B7806486BF86B784608E
:1005A00086BF0895880F82B986B7806486BF86B7F4
:1005B000846086BF089586B7806886BF86B78062EC
:1005C00086BF06B607FEFDCF81B1887F883011F067
:1005D00093E001C091E086B78F7D86BF892F089593
:1005E00086B7806886BF86B7806286BF06B607FE7C
:1005F000FDCF81B1887F803111F094E001C091E09E
:1006000086B78F7D86BF892F089586B7806886BF9D
:1006100086B7806186BF81E00895880F83B986B769
:10062000806886BF06B607FEFDCF81B1887F88311E
:1006300011F085E0089581E00895880F816083B905
:1006400086B7806886BF06B607FEFDCF81B1887F7A
:10065000803411F086E0089581E0089583B986B76B
:10066000806886BF06B607FEFDCF81B1887F8832DD
:1006700011F087E0089581E00895FC01009711F4DE
:1006800089E0089586B7806886BF06B607FEFDCF6D
:1006900081B1887F803511F088E0089583B180832F
:1006A00081E008950E9441000E94A6020E94C702B4
:1006B00080E690E00E946002FFCF629FD001739FAE
:1006C000F001829FE00DF11D649FE00DF11D929FEE
:1006D000F00D839FF00D749FF00D659FF00D99272D
:1006E000729FB00DE11DF91F639FB00DE11DF91F51
:1006F000BD01CF0111240895A1E21A2EAA1BBB1B34
:10070000FD010DC0AA1FBB1FEE1FFF1FA217B307DD
:10071000E407F50720F0A21BB30BE40BF50B661FF3
:10072000771F881F991F1A9469F7609570958095B7
:1007300090959B01AC01BD01CF010895F894FFCFC6
:1007400045787065637465642056616C75653A2000
:020750000000A7
:00000001FF
