:100000000C942A000C943F000C943F000C943F0089
:100010000C943F000C943F000C943F000C943F0064
:100020000C943F000C943F000C943F000C943F0054
:100030000C943F000C943F000C943F000C943F0044
:100040000C943F000C943F000C943F000C943F0034
:100050000C943F0011241FBECFE5D8E0DEBFCDBF1A
:1000600010E0A0E6B0E0EEE9F6E102C005900D92E6
:10007000AC36B107D9F70E9441000C944D0B0C949B
:100080000000CF93DF93CDB7DEB70E944E000E94F1
:100090008A0580E690E00E94F209FFCFCF93DF93BC
:1000A000CDB7DEB78AE390E0FC01108287E390E0F1
:1000B000FC01108284E390E027E0FC01208381E3CF
:1000C00090E02FEFFC0120838BE390E0FC01108295
:1000D00088E390E0FC01108285E390E0FC0110824F
:1000E00082E390E0FC0110820000DF91CF9108953F
:1000F000CF93DF9300D00F92CDB7DEB789836A83A9
:100100004B838981843008F0F7C08A81883008F0F9
:10011000F3C08B81823008F0EFC08981882F90E096
:100120008330910509F4B3C0843091050CF0EDC023
:100130008230910509F475C0833091050CF0E5C05B
:10014000009719F00197B9F1E0C08B81882F90E0FA
:100150000097C9F0019709F0D1C08AE390E0FC0153
:100160008081482F8A81282F30E081E090E002C012
:10017000880F991F2A95E2F7242F282B8AE390E015
:10018000FC01208317C08AE390E0FC018081482FA6
:100190008A81282F30E081E090E002C0880F991F0B
:1001A0002A95E2F78095242F28238AE390E0FC012A
:1001B00020830000A3C08B81882F90E00097C9F0B6
:1001C000019709F09DC087E390E0FC018081482FF2
:1001D0008A81282F30E081E090E002C0880F991FCB
:1001E0002A95E2F7242F282B87E390E0FC01208357
:1001F00017C087E390E0FC018081482F8A81282F77
:1002000030E081E090E002C0880F991F2A95E2F764
:100210008095242F282387E390E0FC0120830000B1
:100220006FC08B81882F90E00097C9F0019709F08B
:1002300069C084E390E0FC018081482F8A81282FE7
:1002400030E081E090E002C0880F991F2A95E2F724
:10025000242F282B84E390E0FC01208317C084E343
:1002600090E0FC018081482F8A81282F30E081E0D6
:1002700090E002C0880F991F2A95E2F78095242FFD
:10028000282384E390E0FC01208300003BC08B81A5
:10029000882F90E00097C1F00197B1F581E390E0DD
:1002A000FC018081482F8A81282F30E081E090E096
:1002B00002C0880F991F2A95E2F7242F282B81E38B
:1002C00090E0FC01208317C081E390E0FC01808175
:1002D000482F8A81282F30E081E090E002C0880F0B
:1002E000991F2A95E2F78095242F282381E390E037
:1002F000FC012083000008C0000007C0000005C00A
:10030000000003C0000001C0000000000F900F902B
:100310000F90DF91CF910895CF93DF9300D00F928C
:10032000CDB7DEB789836A834B838981843008F037
:10033000F7C08A81883008F0F3C08B81823008F0E2
:10034000EFC08981882F90E08330910509F4B3C014
:10035000843091050CF0EDC08230910509F475C030
:10036000833091050CF0E5C0009719F00197B9F1C1
:10037000E0C08B81882F90E00097C9F0019709F0C9
:10038000D1C08BE390E0FC018081482F8A81282F27
:1003900030E081E090E002C0880F991F2A95E2F7D3
:1003A000242F282B8BE390E0FC01208317C08BE3E4
:1003B00090E0FC018081482F8A81282F30E081E085
:1003C00090E002C0880F991F2A95E2F78095242FAC
:1003D00028238BE390E0FC0120830000A3C08B81E5
:1003E000882F90E00097C9F0019709F09DC088E33D
:1003F00090E0FC018081482F8A81282F30E081E045
:1004000090E002C0880F991F2A95E2F7242F282B2D
:1004100088E390E0FC01208317C088E390E0FC01B2
:100420008081482F8A81282F30E081E090E002C04F
:10043000880F991F2A95E2F78095242F282388E3B7
:1004400090E0FC01208300006FC08B81882F90E03A
:100450000097C9F0019709F069C085E390E0FC01BD
:100460008081482F8A81282F30E081E090E002C00F
:10047000880F991F2A95E2F7242F282B85E390E017
:10048000FC01208317C085E390E0FC018081482FA8
:100490008A81282F30E081E090E002C0880F991F08
:1004A0002A95E2F78095242F282385E390E0FC012C
:1004B000208300003BC08B81882F90E00097C1F023
:1004C0000197B1F582E390E0FC018081482F8A8199
:1004D000282F30E081E090E002C0880F991F2A9514
:1004E000E2F7242F282B82E390E0FC01208317C041
:1004F00082E390E0FC018081482F8A81282F30E040
:1005000081E090E002C0880F991F2A95E2F780955C
:10051000242F282382E390E0FC012083000008C000
:10052000000007C0000005C0000003C0000001C0BB
:10053000000000000F900F900F90DF91CF91089571
:10054000CF93DF9300D0CDB7DEB789836A838981EB
:10055000843008F073C08A81883008F06FC08981C8
:10056000882F90E08330910509F452C084309105C2
:100570000CF065C082309105A9F1833091050CF033
:100580005EC0009719F00197B9F059C08BE390E075
:10059000FC018081482F8A81282F30E081E090E0A3
:1005A00002C0880F991F2A95E2F7242F28278BE392
:1005B00090E0FC01208343C088E390E0FC0180814F
:1005C000482F8A81282F30E081E090E002C0880F18
:1005D000991F2A95E2F7242F282788E390E0FC0151
:1005E00020832DC085E390E0FC018081482F8A8123
:1005F000282F30E081E090E002C0880F991F2A95F3
:10060000E2F7242F282785E390E0FC01208317C020
:1006100082E390E0FC018081482F8A81282F30E01E
:1006200081E090E002C0880F991F2A95E2F7242FFD
:10063000282782E390E0FC01208301C00000000035
:100640000F900F90DF91CF910895CF93DF9300D05B
:100650000F92CDB7DEB78A836B838FEF89838A8150
:10066000843008F05FC08B81883008F05BC08A81DD
:10067000882F90E08330910509F443C084309105C0
:100680000CF051C08230910559F1833091050CF086
:100690004AC0009719F0019791F045C089E390E0B6
:1006A000FC018081882F90E02B81222F30E002C056
:1006B000959587952A95E2F78170898334C086E302
:1006C00090E0FC018081882F90E02B81222F30E088
:1006D00002C0959587952A95E2F78170898323C09A
:1006E00083E390E0FC018081882F90E02B81222F12
:1006F00030E002C0959587952A95E2F7817089834D
:1007000012C080E390E0FC018081882F90E02B8173
:10071000222F30E002C0959587952A95E2F78170E7
:10072000898301C0000089810F900F900F90DF91A5
:10073000CF910895CF93DF9300D0CDB7DEB78983F3
:100740006A838981843060F58981882F90E08330C5
:10075000910501F18430910524F582309105A1F0D5
:1007600083309105F4F4009719F0019739F019C01E
:100770008AE390E02A81FC01208313C087E390E0A4
:100780002A81FC0120830DC084E390E02A81FC01D2
:10079000208307C081E390E02A81FC01208301C00F
:1007A000000000000F900F90DF91CF910895CF933C
:1007B000DF9300D0CDB7DEB789836A838981843027
:1007C00060F58981882F90E08330910501F18430B4
:1007D000910524F582309105A1F083309105F4F460
:1007E000009719F0019739F019C08BE390E02A8146
:1007F000FC01208313C088E390E02A81FC01208360
:100800000DC085E390E02A81FC01208307C082E3CC
:1008100090E02A81FC01208301C0000000000F90BD
:100820000F90DF91CF910895CF93DF93CDB7DEB7CF
:10083000A3970FB6F894DEBF0FBECDBF8F8740E001
:1008400060E082E00E948C0140E061E082E00E9472
:100850008C016F8583E00E94D70341E062E082E073
:100860000E948C0180E090E0A0E0B0E489839A834C
:10087000AB83BC8320E030E04AEF54E469817A81A5
:100880008B819C810E94B80A6C8B7D8B8E8B9F8B99
:100890008C899D89AE89BF898D839E83AF83B887FC
:1008A00020E030E040E85FE36D817E818F819885B4
:1008B0000E94320A88232CF481E090E09A8789878D
:1008C00054C020E03FEF4FE757E46D817E818F8178
:1008D00098850E94B30A1816D4F520E030E040E273
:1008E00051E469817A818B819C810E94B80A688F6A
:1008F000798F8A8F9B8F888D998DAA8DBB8D888BE0
:10090000998BAA8BBB8B688979898A899B890E947C
:10091000370A6C8F7D8F8E8F9F8FAC8DBD8DBA8780
:10092000A98710C088EC90E09C878B878B859C857D
:100930000197F1F79C878B87000089859A8501973D
:100940009A87898789859A85892B61F719C06D8176
:100950007E818F8198850E94370A68A379A38AA334
:100960009BA388A199A19A87898789859A859E8763
:100970008D878D859E850197F1F79E878D87000075
:1009800040E062E082E00E948C010000A3960FB676
:10099000F894DEBF0FBECDBFDF91CF910895CF9306
:1009A000DF93CDB7DEB7A3970FB6F894DEBF0FBEC7
:1009B000CDBF8F8741E060E082E00E948C0140E083
:1009C00061E082E00E948C016F8583E00E94D70382
:1009D00041E062E082E00E948C0180E090E0A0E0D3
:1009E000B0E489839A83AB83BC8320E030E04AEF94
:1009F00054E469817A818B819C810E94B80A6C8B56
:100A00007D8B8E8B9F8B8C899D89AE89BF898D83D1
:100A10009E83AF83B88720E030E040E85FE36D81DC
:100A20007E818F8198850E94320A88232CF481E090
:100A300090E09A87898754C020E03FEF4FE757E462
:100A40006D817E818F8198850E94B30A1816D4F536
:100A500020E030E040E251E469817A818B819C8121
:100A60000E94B80A688F798F8A8F9B8F888D998DA5
:100A7000AA8DBB8D888B998BAA8BBB8B6889798952
:100A80008A899B890E94370A6C8F7D8F8E8F9F8FFA
:100A9000AC8DBD8DBA87A98710C088EC90E09C878B
:100AA0008B878B859C850197F1F79C878B8700004E
:100AB00089859A8501979A87898789859A85892B5F
:100AC00061F719C06D817E818F8198850E94370AF8
:100AD00068A379A38AA39BA388A199A19A878987F0
:100AE00089859A859E878D878D859E850197F1F7EB
:100AF0009E878D87000040E062E082E00E948C01CA
:100B00000000A3960FB6F894DEBF0FBECDBFDF91F5
:100B1000CF9108950F931F93CF93DF93CDB7DEB797
:100B2000CA5AD1090FB6F894DEBF0FBECDBF80E020
:100B300090E0A0EFB1E489AF9AAFABAFBCAF20E0DB
:100B400030E04AEF54E469AD7AAD8BAD9CAD0E94C4
:100B5000B80A6F966CAF7DAF8EAF9FAF6F97CE0127
:100B6000CD966F962CAD3DAD4EAD5FAD6F97DC0170
:100B70002D933D934D935C93139720E030E040E834
:100B80005FE3CE01CD96FC0160817181828193810A
:100B90000E94320A88234CF4CE018F5B9F4F21E0E4
:100BA00030E0DC012D933C938CC020E03FEF4FE719
:100BB00057E4CE01CD96FC016081718182819381E1
:100BC0000E94B30A18160CF063C020E030E040E247
:100BD00051E469AD7AAD8BAD9CAD0E94B80AA39685
:100BE0006CAF7DAF8EAF9FAFA397A3962CAD3DADFD
:100BF0004EAD5FADA3976B962CAF3DAF4EAF5FAFE1
:100C00006B978E010F5B1F4F6B966CAD7DAD8EADFC
:100C10009FAD6B970E94370AA7966CAF7DAF8EAFE2
:100C20009FAFA797A596EEADFFADA597D801ED9321
:100C3000FC9325C0CE018D5B9F4F28EC30E0DC019A
:100C40002D933C93CE018D5B9F4FFC018081918160
:100C50000197F1F79E012D5B3F4FD9018D939C9336
:100C60000000CE018F5B9F4F9E012F5B3F4FF9012C
:100C70002081318121503109DC012D933C93CE013B
:100C80008F5B9F4FFC0180819181892B99F634C045
:100C90008E010F5B1F4FCE01CD96DC016D917D91D2
:100CA0008D919C910E94370AAB966CAF7DAF8EAF51
:100CB0009FAFAB97A9962EAD3FADA997F8013183B1
:100CC0002083CE018B5B9F4F9E012F5B3F4FD9014D
:100CD0002D913C91FC0131832083CE018B5B9F4F92
:100CE000DC018D919C910197F1F79E012B5B3F4FA9
:100CF000F90191838083000088E30E94140480E05E
:100D000090E0A0E8BFE38BA79CA7ADA7BEA720E01B
:100D100030E04AEF54E46BA57CA58DA59EA50E940A
:100D2000B80AAF966CAF7DAF8EAF9FAFAF97AF965F
:100D30002CAD3DAD4EAD5FADAF972FA738AB49ABF6
:100D40005AAB20E030E040E85FE36FA578A989A9BD
:100D50009AA90E94320A88232CF481E090E09CAB8F
:100D60008BAB65C020E03FEF4FE757E46FA578A954
:100D700089A99AA90E94B30A18160CF046C020E06F
:100D800030E040E251E46BA57CA58DA59EA50E94B4
:100D9000B80AE3966CAF7DAF8EAF9FAFE397E39653
:100DA0008CAD9DADAEADBFADE39767968CAF9DAFFB
:100DB000AEAFBFAF679767966CAD7DAD8EAD9FADA3
:100DC00067970E94370AE7966CAF7DAF8EAF9FAFF3
:100DD000E797E596AEADBFADE597BCABABAB10C04A
:100DE00088EC90E09EAB8DAB8DA99EA90197F1F7A1
:100DF0009EAB8DAB00008BA99CA901979CAB8BABE4
:100E00008BA99CA9892B61F71DC06FA578A989A919
:100E10009AA90E94370AEB966CAF7DAF8EAF9FAF59
:100E2000EB97E996EEADFFADE997FCABEBAB8BA989
:100E30009CA998AF8FAB8FA998AD0197F1F798AFA8
:100E40008FAB00008FE00E94140480E090E0A0E8E7
:100E5000BFE38D8F9E8FAF8FB8A320E030E04AEFC5
:100E600054E46D8D7E8D8F8D98A10E94B80AEF9607
:100E70006CAF7DAF8EAF9FAFEF97EF962CAD3DADD2
:100E80004EAD5FADEF9729A33AA34BA35CA320E03F
:100E900030E040E85FE369A17AA18BA19CA10E94A8
:100EA000320A88232CF481E090E09EA38DA371C0C8
:100EB00020E03FEF4FE757E469A17AA18BA19CA105
:100EC0000E94B30A18160CF04EC020E030E040E259
:100ED00051E46D8D7E8D8F8D98A10E94B80AC15806
:100EE000DF4F688379838A839B83CF57D040C15873
:100EF000DF4F88819981AA81BB81CF57D04063960B
:100F00008CAF9DAFAEAFBFAF639763966CAD7DAD59
:100F10008EAD9FAD63970E94370ACD57DF4F688330
:100F200079838A839B83C358D040CD57DF4FA881F4
:100F3000B981C358D040BEA3ADA310C088EC90E0E7
:100F400098A78FA38FA198A50197F1F798A78FA3D2
:100F500000008DA19EA101979EA38DA38DA19EA1AE
:100F6000892B61F721C069A17AA18BA19CA10E9464
:100F7000370AC957DF4F688379838A839B83C758B1
:100F8000D040C957DF4FE881F981C758D040FEA350
:100F9000EDA38DA19EA19AA789A789A59AA50197DE
:100FA000F1F79AA789A7000081E00E94140480E06D
:100FB00090E0A0E0B0E48F87988BA98BBA8B20E0FB
:100FC00030E04AEF54E46F85788989899A890E94D4
:100FD000B80AC557DF4F688379838A839B83CB58D0
:100FE000D040C557DF4F288139814A815B81CB587A
:100FF000D0402B8B3C8B4D8B5E8B20E030E040E86B
:101000005FE36B897C898D899E890E94320A8823DF
:101010002CF481E090E0988F8F8B71C020E03FEF3F
:101020004FE757E46B897C898D899E890E94B30ABA
:1010300018160CF04EC020E030E040E251E46F851D
:10104000788989899A890E94B80AC157DF4F6883D5
:1010500079838A839B83CF58D040C157DF4F8881E3
:101060009981AA81BB81CF58D0402F968CAF9DAF7C
:10107000AEAFBFAF2F972F966CAD7DAD8EAD9FAD50
:101080002F970E94370ACD56DF4F688379838A8372
:101090009B83C359D040CD56DF4FA881B981C35936
:1010A000D040B88FAF8B10C088EC90E09A8F898FBA
:1010B000898D9A8D0197F1F79A8F898F00008F891A
:1010C000988D0197988F8F8B8F89988D892B61F7D9
:1010D00021C06B897C898D899E890E94370AC956F7
:1010E000DF4F688379838A839B83C759D040C95671
:1010F000DF4FE881F981C759D040F88FEF8B8F8996
:10110000988D9C8F8B8F8B8D9C8D0197F1F79C8F89
:101110008B8F000086E00E94140480E090E0A0E83D
:10112000BFE389839A83AB83BC8320E030E04AEF3E
:1011300054E469817A818B819C810E94B80AC556EA
:10114000DF4F688379838A839B83CB59D040C55610
:10115000DF4F288139814A815B81CB59D0402D8373
:101160003E834F83588720E030E040E85FE36D81A5
:101170007E818F8198850E94320A88232CF481E039
:1011800090E09A87898771C020E03FEF4FE757E4EE
:101190006D817E818F8198850E94B30A18160CF0AC
:1011A0004EC020E030E040E251E469817A818B81D9
:1011B0009C810E94B80AC156DF4F688379838A8375
:1011C0009B83CF59D040C156DF4F88819981AA8136
:1011D000BB81CF59D0402B968CAF9DAFAEAFBFAF88
:1011E0002B972B966CAD7DAD8EAD9FAD2B970E944E
:1011F000370ACD55DF4F688379838A839B83C35A2F
:10120000D040CD55DF4FA881B981C35AD040BA87AD
:10121000A98710C088EC90E09C878B878B859C8584
:101220000197F1F79C878B87000089859A85019744
:101230009A87898789859A85892B61F721C06D8175
:101240007E818F8198850E94370AC955DF4F688358
:1012500079838A839B83C75AD040C955DF4FE88181
:10126000F981C75AD040FA87E98789859A859E8790
:101270008D878D859E850197F1F79E878D8700006C
:101280000000C655DF4F0FB6F894DEBF0FBECDBFCE
:10129000DF91CF911F910F910895CF93DF93CDB739
:1012A000DEB7A2970FB6F894DEBF0FBECDBF81E0C8
:1012B0000E94140480E090E0A0E0B0E489839A8367
:1012C000AB83BC8320E030E04AEF54E469817A814B
:1012D0008B819C810E94B80A6B8B7C8B8D8B9E8B43
:1012E0008B899C89AD89BE898D839E83AF83B887A6
:1012F00020E030E040E85FE36D817E818F8198855A
:101300000E94320A88232CF481E090E09A87898732
:1013100054C020E03FEF4FE757E46D817E818F811D
:1013200098850E94B30A1816D4F520E030E040E218
:1013300051E469817A818B819C810E94B80A6F8B0C
:10134000788F898F9A8F8F89988DA98DBA8D8F8785
:10135000988BA98BBA8B6F85788989899A890E9425
:10136000370A6B8F7C8F8D8F9E8FAB8DBC8DBA872C
:10137000A98710C088EC90E09C878B878B859C8523
:101380000197F1F79C878B87000089859A850197E3
:101390009A87898789859A85892B61F719C06D811C
:1013A0007E818F8198850E94370A6F8F78A389A3E9
:1013B0009AA38F8D98A19A87898789859A859E8718
:1013C0008D878D859E850197F1F79E878D8700001B
:1013D0000000A2960FB6F894DEBF0FBECDBFDF911E
:1013E000CF910895CF93DF9300D0CDB7DEB79A8326
:1013F00089830BC089819A819C012F5F3F4F3A837B
:101400002983FC0180810E94CF0489819A81FC019B
:101410008081882379F7000000000F900F90DF9102
:10142000CF910895CF93DF9300D0CDB7DEB78983F6
:101430006A838981882F90E08130910519F00297A5
:1014400031F00AC08A8181580E94140405C08A8143
:1014500081540E941404000000000F900F90DF914F
:10146000CF9108950E94660A08F481E008950E94D1
:10147000920A88F09F5798F0B92F9927B751B0F08A
:10148000E1F0660F771F881F991F1AF0BA95C9F708
:1014900014C0B13091F00E94AC0AB1E008950C94F0
:1014A000AC0A672F782F8827B85F39F0B93FCCF3A3
:1014B000869577956795B395D9F73EF49095809585
:1014C000709561957F4F8F4F9F4F0895990F00083A
:1014D000550FAA0BE0E8FEEF16161706E807F90706
:1014E000C0F012161306E407F50798F0621B730BA1
:1014F000840B950B39F40A2661F0232B242B252B22
:1015000021F408950A2609F4A140A6958FEF811DC4
:10151000811D089557FD9058440F551F59F05F3FA6
:1015200071F04795880F97FB991F61F09F3F79F005
:1015300087950895121613061406551FF2CF469587
:10154000F1DF08C0161617061806991FF1CF869509
:101550007105610508940895E894BB2766277727ED
:10156000CB0197F908950E94660A08F48FEF089559
:101570000E94CB0A0C943C0B0E942E0B38F00E9468
:10158000350B20F0952311F00C94250B0C942B0BAC
:1015900011240C94AD0A0E948A0A70F3959FC1F33E
:1015A000950F50E0551F629FF001729FBB27F00D11
:1015B000B11D639FAA27F00DB11DAA1F649F662766
:1015C000B00DA11D661F829F2227B00DA11D621FB5
:1015D000739FB00DA11D621F839FA00D611D221F6F
:1015E000749F3327A00D611D231F849F600D211D53
:1015F000822F762F6A2F11249F5750409AF0F1F0D6
:1016000088234AF0EE0FFF1FBB1F661F771F881F3E
:1016100091505040A9F79E3F510580F00C94250B46
:101620000C94AD0A5F3FE4F3983ED4F3869577952A
:101630006795B795F795E7959F5FC1F7FE2B880FE4
:10164000911D9695879597F9089597F99F6780E87A
:1016500070E060E008959FEF80EC089500240A9404
:101660001616170618060906089500240A9412167D
:101670001306140605060895092E0394000C11F4B0
:10168000882352F0BB0F40F4BF2B11F460FF04C05D
:0E1690006F5F7F4F8F4F9F4F0895F894FFCFED
:0C169E00416264656C7261686D616E00F1
:00000001FF
