:100000000C942A000C9434000C9434000C943400AA
:100010000C9434000C9434000C9434000C94340090
:100020000C9434000C9434000C9434000C94340080
:100030000C9434000C9434000C9434000C94340070
:100040000C9434000C9434000C9434000C94340060
:100050000C94340011241FBECFE5D8E0DEBFCDBF25
:100060000E9436000C9445020C9400000F931F93DD
:10007000CF93DF930E9454000E942B02C0E2DEE483
:1000800008EC10E081E30E943D02853311F0CE01BF
:1000900005C080E060E00E948F01CE01F801319739
:1000A000F1F7019779F3FACF9FE09ABB8FE487BB12
:1000B00094BB91BB81EF8BBB18BA80EF85BB82BB31
:1000C0000895843008F093C0683008F090C0423042
:1000D00008F08DC0813051F1813038F0823009F460
:1000E00046C0833009F083C063C0442321F041300F
:1000F00009F07DC00EC0EAE3F0E0208181E090E0ED
:1001000002C0880F991F6A95E2F780958223808349
:100110000895EAE3F0E0208181E090E002C0880FDA
:10012000991F6A95E2F7282B20830895442321F034
:10013000413009F05CC00EC0E7E3F0E0208181E0CF
:1001400090E002C0880F991F6A95E2F7809582239C
:1001500080830895E7E3F0E0208181E090E002C031
:10016000880F991F6A95E2F7282B2083089544236E
:1001700021F0413009F03BC00EC0E4E3F0E0208103
:1001800081E090E002C0880F991F6A95E2F78095A0
:10019000822380830895E4E3F0E0208181E090E011
:1001A00002C0880F991F6A95E2F7282B20830895D3
:1001B000442319F04130D9F40EC0E1E3F0E020818E
:1001C00081E090E002C0880F991F6A95E2F7809560
:1001D000822380830895E1E3F0E0208181E090E0D4
:1001E00002C0880F991F6A95E2F7282B2083089593
:1001F000843008F093C0683008F090C0423008F0B6
:100200008DC0813051F1813038F0823009F446C020
:10021000833009F083C063C0442321F0413009F0EA
:100220007DC00EC0EBE3F0E0208181E090E002C0F1
:10023000880F991F6A95E2F780958223808308953D
:10024000EBE3F0E0208181E090E002C0880F991F8D
:100250006A95E2F7282B20830895442321F041304A
:1002600009F05CC00EC0E8E3F0E0208181E090E09E
:1002700002C0880F991F6A95E2F7809582238083D8
:100280000895E8E3F0E0208181E090E002C0880F6B
:10029000991F6A95E2F7282B20830895442321F0C3
:1002A000413009F03BC00EC0E5E3F0E0208181E081
:1002B00090E002C0880F991F6A95E2F7809582232B
:1002C00080830895E5E3F0E0208181E090E002C0C2
:1002D000880F991F6A95E2F7282B208308954423FD
:1002E00019F04130D9F40EC0E2E3F0E0208181E062
:1002F00090E002C0880F991F6A95E2F780958223EB
:1003000080830895E2E3F0E0208181E090E002C084
:10031000880F991F6A95E2F7282B2083089584306F
:1003200008F03FC0673008F03CC08130A1F0813058
:1003300028F08230E9F08330A1F527C0EBE3F0E04C
:10034000208181E090E002C0880F991F6A95E2F752
:10035000282720830895E8E3F0E0208181E090E001
:1003600002C0880F991F6A95E2F728272083089515
:10037000E5E3F0E0208181E090E002C0880F991F62
:100380006A95E2F7282720830895E2E3F0E02081D0
:1003900081E090E002C0880F991F6A95E2F7282754
:1003A00020830895843078F5673068F5813081F0D6
:1003B000813028F08230A9F0833029F51BC08BB33F
:1003C00090E002C0959587956A95E2F7817008954F
:1003D00088B390E002C0959587956A95E2F78170A1
:1003E000089585B390E002C0959587956A95E2F7E8
:1003F0008170089582B390E002C0959587956A95C3
:10040000E2F7817008958FEF0895843080F4813091
:1004100049F0813028F0823039F0833041F406C051
:100420006ABB089567BB089564BB089561BB0895D6
:10043000843080F4813049F0813028F0823039F006
:10044000833041F406C06BBB089568BB089565BB5B
:10045000089562BB0895EDE2F0E080818F7D808396
:1004600080818860808380818460808380818F7EAA
:10047000808380818064808308958FB9EEE2F0E00C
:0E04800080818823ECF78FB10895F894FFCFA8
:00000001FF
