:100000000C942A000C9447000C9447000C94470071
:100010000C9447000C9447000C9447000C94470044
:100020000C9447000C9447000C9447000C94470034
:100030000C9447000C94F7070C942C080C9461085E
:100040000C9447000C9447000C9447000C94470014
:100050000C94470011241FBECFE5D8E0DEBFCDBF12
:1000600010E0A0E6B0E0EAE5F4E102C005900D92F0
:10007000AC3BB107D9F720E0ACEBB0E001C01D927A
:10008000A23CB207E1F70E9496080C94210A0C9456
:100090000000CF93DF93CDB7DEB78AE390E021E095
:1000A000FC01208387E390E028E0FC01208384E3C7
:1000B00090E0FC01108281E390E022E0FC012083CB
:1000C0008BE390E0FC01108288E390E0FC01108259
:1000D00085E390E021E0FC0120838BE390E0FC01CC
:1000E00010820000DF91CF910895CF93DF9300D06D
:1000F0000F92CDB7DEB789836A834B8389818430C1
:1001000008F0F7C08A81883008F0F3C08B81823014
:1001100008F0EFC08981882F90E08330910509F4C1
:10012000B3C0843091050CF0E6C08230910509F42B
:1001300075C0833091050CF0DEC0009719F001976F
:10014000B9F1D9C08B81882F90E00097C9F0019751
:1001500009F0D3C08AE390E0FC018081482F8A81B6
:10016000282F30E081E090E002C0880F991F2A9587
:10017000E2F7242F282B8AE390E0FC01208317C0AC
:100180008AE390E0FC018081482F8A81282F30E0AB
:1001900081E090E002C0880F991F2A95E2F78095D0
:1001A000242F28238AE390E0FC0120830000A5C0CF
:1001B0008B81882F90E00097C9F0019709F09FC0CC
:1001C00087E390E0FC018081482F8A81282F30E06E
:1001D00081E090E002C0880F991F2A95E2F7242F52
:1001E000282B87E390E0FC01208317C087E390E091
:1001F000FC018081482F8A81282F30E081E090E047
:1002000002C0880F991F2A95E2F78095242F282392
:1002100087E390E0FC012083000071C08B81882F70
:1002200090E00097C9F0019709F06BC084E390E07B
:10023000FC018081482F8A81282F30E081E090E006
:1002400002C0880F991F2A95E2F7242F282B84E3F8
:1002500090E0FC01208317C084E390E0FC018081E2
:10026000482F8A81282F30E081E090E002C0880F7B
:10027000991F2A95E2F78095242F282384E390E0A4
:10028000FC01208300003DC08B81882F90E0009707
:10029000C1F00197C1F581E390E0FC018081482F16
:1002A0008A81282F30E081E090E002C0880F991FFA
:1002B0002A95E2F7242F282B81E390E0FC0120838C
:1002C00017C081E390E0FC018081482F8A81282FAC
:1002D00030E081E090E002C0880F991F2A95E2F794
:1002E0008095242F282381E390E0FC0120830000E7
:1002F0000AC0000009C0000007C0000005C00000DF
:1003000003C0000001C0000000000F900F900F908C
:10031000DF91CF910895CF93DF9300D00F92CDB7A7
:10032000DEB789836A834B838981843008F0F7C004
:100330008A81883008F0F3C08B81823008F0EFC0EA
:100340008981882F90E08330910509F4B3C084300F
:1003500091050CF0E6C08230910509F475C0833038
:1003600091050CF0DEC0009719F00197B9F1D9C0E2
:100370008B81882F90E00097C9F0019709F0D3C0D6
:100380008BE390E0FC018081482F8A81282F30E0A8
:1003900081E090E002C0880F991F2A95E2F7242F90
:1003A000282B8BE390E0FC01208317C08BE390E0C7
:1003B000FC018081482F8A81282F30E081E090E085
:1003C00002C0880F991F2A95E2F78095242F2823D1
:1003D0008BE390E0FC0120830000A5C08B81882F77
:1003E00090E00097C9F0019709F09FC088E390E082
:1003F000FC018081482F8A81282F30E081E090E045
:1004000002C0880F991F2A95E2F7242F282B88E332
:1004100090E0FC01208317C088E390E0FC0180811C
:10042000482F8A81282F30E081E090E002C0880FB9
:10043000991F2A95E2F78095242F282388E390E0DE
:10044000FC012083000071C08B81882F90E0009711
:10045000C9F0019709F06BC085E390E0FC01808151
:10046000482F8A81282F30E081E090E002C0880F79
:10047000991F2A95E2F7242F282B85E390E0FC01B1
:10048000208317C085E390E0FC018081482F8A819A
:10049000282F30E081E090E002C0880F991F2A9554
:1004A000E2F78095242F282385E390E0FC01208348
:1004B00000003DC08B81882F90E00097C1F001972C
:1004C000C1F582E390E0FC018081482F8A81282FCA
:1004D00030E081E090E002C0880F991F2A95E2F792
:1004E000242F282B82E390E0FC01208317C082E3B5
:1004F00090E0FC018081482F8A81282F30E081E044
:1005000090E002C0880F991F2A95E2F78095242F6A
:10051000282382E390E0FC01208300000AC0000051
:1005200009C0000007C0000005C0000003C00000B3
:1005300001C0000000000F900F900F90DF91CF914D
:100540000895CF93DF9300D0CDB7DEB789836A8358
:100550008981843008F073C08A81883008F06FC0C8
:100560008981882F90E08330910509F452C084304E
:1005700091050CF066C082309105A9F18330910598
:100580000CF05FC0009719F00197B9F05AC08BE3E7
:1005900090E0FC018081482F8A81282F30E081E0A3
:1005A00090E002C0880F991F2A95E2F7242F282790
:1005B0008BE390E0FC01208345C088E390E0FC01E0
:1005C0008081482F8A81282F30E081E090E002C0AE
:1005D000880F991F2A95E2F7242F282788E390E0B7
:1005E000FC0120832FC085E390E0FC018081482F2F
:1005F0008A81282F30E081E090E002C0880F991FA7
:100600002A95E2F7242F282785E390E0FC01208338
:1006100019C082E390E0FC018081482F8A81282F55
:1006200030E081E090E002C0880F991F2A95E2F740
:10063000242F282782E390E0FC01208303C00000E0
:1006400001C0000000000F900F90DF91CF9108953E
:10065000CF93DF9300D00F92CDB7DEB78A836B8341
:100660008A81843008F05FC08B81883008F05BC0DD
:100670008A81882F90E08330910509F443C084304B
:1006800091050CF052C08230910559F183309105EB
:100690000CF04BC0009719F0019791F046C089E328
:1006A00090E0FC018081882F90E02B81222F30E0A8
:1006B00002C0959587952A95E2F78170898336C0A7
:1006C00086E390E0FC018081882F90E02B81222F2F
:1006D00030E002C0959587952A95E2F7817089836D
:1006E00025C083E390E0FC018081882F90E02B817E
:1006F000222F30E002C0959587952A95E2F7817008
:10070000898314C080E390E0FC018081882F90E011
:100710002B81222F30E002C0959587952A95E2F72C
:100720008170898303C0000001C0000089810F909F
:100730000F900F90DF91CF910895CF93DF9300D06A
:10074000CDB7DEB789836A838981843060F589817A
:10075000882F90E08330910501F1843091052CF5CC
:1007600082309105A1F083309105FCF4009719F0D7
:10077000019739F01AC08AE390E02A81FC012083B6
:1007800015C087E390E02A81FC0120830FC084E339
:1007900090E02A81FC01208309C081E390E02A8156
:1007A000FC01208303C0000001C0000000000F9086
:1007B0000F90DF91CF910895CF93DF9300D0CDB705
:1007C000DEB789836A838981843060F58981882FC7
:1007D00090E08330910501F1843091052CF5823051
:1007E0009105A1F083309105FCF4009719F0019771
:1007F00039F01AC08BE390E02A81FC01208315C0F8
:1008000088E390E02A81FC0120830FC085E390E01B
:100810002A81FC01208309C082E390E02A81FC0147
:10082000208303C0000001C0000000000F900F9063
:10083000DF91CF910895CF93DF93CDB7DEB78FE5EA
:1008400090E0FC0120818FE590E02068FC0120838E
:100850000000DF91CF910895CF93DF93CDB7DEB73E
:100860008FE590E0FC0120818FE590E02F77FC017F
:1008700020830000DF91CF910895CF93DF9300D0C4
:100880000F92CDB7DEB789836A834B834B816A8130
:1008900089810E948B0100000F900F900F90DF91D3
:1008A000CF910895CF93DF9300D0CDB7DEB7898382
:1008B0006A836A8189810E94A10200000F900F90D3
:1008C000DF91CF910895CF93DF9300D0CDB7DEB7FE
:1008D00089836A838A81882F90E0092E000CAA0BF5
:1008E000BB0B8A309105A105B105B8F58D5D954F1B
:1008F000FC010C94C3086FE389810E94DC032EC0C5
:1009000066E089810E94DC0329C06BE589810E9431
:10091000DC0324C06FE489810E94DC031FC066E60B
:1009200089810E94DC031AC06DE689810E94DC0384
:1009300015C06DE789810E94DC0310C067E08981E2
:100940000E94DC030BC06FE789810E94DC0306C0B4
:100950006FE689810E94DC0301C0000000000F9057
:100960000F90DF91CF910895CF93DF93CDB7DEB78E
:10097000AE970FB6F894DEBF0FBECDBF888B7A8BD3
:10098000698B1982A8C0698188890E94630489895A
:100990009A899C0140E050E02B8F3C8F4D8F5E8FF9
:1009A0006B8D7C8D8D8D9E8D0E94FD086B8B7C8B5D
:1009B0008D8B9E8B8B899C89AD89BE898A839B8315
:1009C000AC83BD8320E030E04AEF54E46A817B8150
:1009D0008C819D810E948C096F8F78A389A39AA333
:1009E0002F8D38A149A15AA12E833F83488759876B
:1009F00020E030E040E85FE36E817F818885998563
:100A00000E94C90888232CF481E090E09B878A87A4
:100A100054C020E03FEF4FE757E46E817F81888527
:100A200099850E9487091816D4F520E030E040E24D
:100A300051E46A817B818C819D810E948C096BA32A
:100A40007CA38DA39EA38BA19CA1ADA1BEA18F8BE6
:100A5000988FA98FBA8F6F89788D898D9A8D0E9412
:100A6000CE086FA378A789A79AA7AFA1B8A5BB871F
:100A7000AA8710C088EC90E09D878C878C859D8527
:100A80000197F1F79D878C8700008A859B850197E8
:100A90009B878A878A859B85892B61F719C06E8120
:100AA0007F81888599850E94CE086BA77CA78DA73A
:100AB0009EA72BA53CA53B872A878A859B859F8778
:100AC0008E878E859F850197F1F79F878E8700001F
:100AD00089818F5F898389818A3008F454CF00002F
:100AE0000000AE960FB6F894DEBF0FBECDBFDF910B
:100AF000CF910895CF93DF93CDB7DEB7AE970FB602
:100B0000F894DEBF0FBECDBF888B7A8B698B89E0EE
:100B10008983A9C08981682F88890E946304898993
:100B20009A899C0140E050E02B8F3C8F4D8F5E8F67
:100B30006B8D7C8D8D8D9E8D0E94FD086B8B7C8BCB
:100B40008D8B9E8B8B899C89AD89BE898A839B8383
:100B5000AC83BD8320E030E04AEF54E46A817B81BE
:100B60008C819D810E948C096F8F78A389A39AA3A1
:100B70002F8D38A149A15AA12E833F8348875987D9
:100B800020E030E040E85FE36E817F8188859985D1
:100B90000E94C90888232CF481E090E09B878A8713
:100BA00054C020E03FEF4FE757E46E817F81888596
:100BB00099850E9487091816D4F520E030E040E2BC
:100BC00051E46A817B818C819D810E948C096BA399
:100BD0007CA38DA39EA38BA19CA1ADA1BEA18F8B55
:100BE000988FA98FBA8F6F89788D898D9A8D0E9481
:100BF000CE086FA378A789A79AA7AFA1B8A5BB878E
:100C0000AA8710C088EC90E09D878C878C859D8595
:100C10000197F1F79D878C8700008A859B85019756
:100C20009B878A878A859B85892B61F719C06E818E
:100C30007F81888599850E94CE086BA77CA78DA7A8
:100C40009EA72BA53CA53B872A878A859B859F87E6
:100C50008E878E859F850197F1F79F878E8700008D
:100C6000898181508983898188230CF053CF0000CA
:100C70000000AE960FB6F894DEBF0FBECDBFDF9179
:100C8000CF910895CF93DF9300D0CDB7DEB783E344
:100C900090E09A83898389E290E02981FC01208396
:100CA00089819A81292F332780E490E0FC012083F9
:100CB0008AE290E0FC0120818AE290E02B7FFC0137
:100CC000208380E490E026E8FC0120838AE290E023
:100CD000FC0120818AE290E02860FC0120838AE206
:100CE00090E0FC0120818AE290E02061FC012083F9
:100CF00000000F900F90DF91CF910895CF93DF9375
:100D00000F92CDB7DEB7898300008BE290E0FC0143
:100D10008081829586958770882F90E081709927D1
:100D2000892B99F38CE290E02981FC01208300005B
:100D30008BE290E0FC018081829586958770882FF8
:100D400090E081709927892B99F38BE290E0FC0168
:100D500020818BE290E02064FC01208300000F9052
:100D6000DF91CF910895CF93DF9300D000D00F9201
:100D7000CDB7DEB78D8319821A821B821C8214C004
:100D800089819A81AB81BC810196A11DB11D8983A6
:100D90009A83AB83BC8389819A81AB81BC8188387B
:100DA0009341A105B10571F08BE290E0FC018081D7
:100DB000829586958770882F90E081709927892B7E
:100DC000F9F201C0000089819A81AB81BC81883829
:100DD0009341A105B105B1F119821A821B821C82CF
:100DE0008CE290E02D81FC01208314C089819A81DE
:100DF000AB81BC810196A11DB11D89839A83AB8310
:100E0000BC8389819A81AB81BC8188389341A105DB
:100E1000B10571F08BE290E0FC01808182958695AE
:100E20008770882F90E081709927892BF9F201C093
:100E300000008BE290E0FC0120818BE290E02064D6
:100E4000FC01208300000F900F900F900F900F90E7
:100E5000DF91CF910895CF93DF9300D0CDB7DEB768
:100E60009A8389830BC089819A819C012F5F3F4FB0
:100E70003A832983FC0180810E94B30689819A818B
:100E8000FC018081882379F7000000000F900F900B
:100E9000DF91CF910895CF93DF930F92CDB7DEB757
:100EA00089838BE290E0FC01808182958695877032
:100EB000882F90E081709927019729F48CE290E0C7
:100EC0002981FC01208300000F90DF91CF910895CC
:100ED000CF93DF93CDB7DEB700008BE290E0FC014B
:100EE0008081881F8827881F882F90E0817099272C
:100EF000892B99F38CE290E0FC018081DF91CF9106
:100F00000895CF93DF93CDB7DEB78CE290E0FC017C
:100F10008081DF91CF910895CF93DF9300D000D0EF
:100F20000F92CDB7DEB78FEF89831A821B821C82A6
:100F30001D8214C08A819B81AC81BD810196A11D57
:100F4000B11D8A839B83AC83BD838A819B81AC81E5
:100F5000BD8188389341A105B10571F08BE290E025
:100F6000FC018081881F8827881F882F90E081706E
:100F70009927892BF9F201C000008A819B81AC81FD
:100F8000BD8188389341A105B10529F08CE290E03C
:100F9000FC018081898389810F900F900F900F90C1
:100FA0000F90DF91CF910895CF93DF9300D00F92F0
:100FB000CDB7DEB789837B836A838981833080F4F0
:100FC0008A819B81892B61F08981882F90E0880F2D
:100FD000991F84549F4F2A813B81FC0131832083D8
:100FE00000000F900F900F90DF91CF9108951F9206
:100FF0000F920FB60F9211242F933F934F935F934D
:101000006F937F938F939F93AF93BF93EF93FF93D0
:10101000CF93DF93CDB7DEB78091BC009091BD0038
:10102000892B31F08091BC009091BD00FC010995A5
:101030000000DF91CF91FF91EF91BF91AF919F9110
:101040008F917F916F915F914F913F912F910F9071
:101050000FBE0F901F9018951F920F920FB60F9210
:1010600011242F933F934F935F936F937F938F93AD
:101070009F93AF93BF93EF93FF93CF93DF93CDB73E
:10108000DEB78091BE009091BF00892B31F0809136
:10109000BE009091BF00FC0109950000DF91CF9147
:1010A000FF91EF91BF91AF919F918F917F916F9140
:1010B0005F914F913F912F910F900FBE0F901F9016
:1010C00018951F920F920FB60F9211242F933F93F2
:1010D0004F935F936F937F938F939F93AF93BF9340
:1010E000EF93FF93CF93DF93CDB7DEB78091C0002E
:1010F0009091C100892B31F08091C0009091C10086
:10110000FC0109950000DF91CF91FF91EF91BF9114
:10111000AF919F918F917F916F915F914F913F918F
:101120002F910F900FBE0F901F901895CF93DF93C4
:101130000F92CDB7DEB70E9449000E944206198285
:1011400080E690E00E942B078EE790E00E942B073C
:101150000E94680789838981813419F089818136E9
:1011600031F441E060E080E00E943D040BC08981E1
:10117000843419F08981843659F740E060E080E0DA
:101180000E943D04E5CFEE0FFF1F0590F491E02D86
:1011900009940E943A0908F481E008950E946609C2
:1011A00088F09F5798F0B92F9927B751B0F0E1F028
:1011B000660F771F881F991F1AF0BA95C9F714C0D8
:1011C000B13091F00E948009B1E008950C9480093B
:1011D000672F782F8827B85F39F0B93FCCF3869511
:1011E00077956795B395D9F73EF49095809570956E
:1011F00061957F4F8F4F9F4F0895E89409C097FBEB
:101200003EF490958095709561957F4F8F4F9F4FDD
:101210009923A9F0F92F96E9BB279395F695879521
:1012200077956795B795F111F8CFFAF4BB0F11F4E4
:1012300060FF1BC06F5F7F4F8F4F9F4F16C088238B
:1012400011F096E911C0772321F09EE8872F762FC1
:1012500005C0662371F096E8862F70E060E02AF002
:101260009A95660F771F881FDAF7880F96958795EE
:1012700097F90895990F0008550FAA0BE0E8FEEFC3
:1012800016161706E807F907C0F012161306E4074A
:10129000F50798F0621B730B840B950B39F40A2643
:1012A00061F0232B242B252B21F408950A2609F421
:1012B000A140A6958FEF811D811D089557FD90587F
:1012C000440F551F59F05F3F71F04795880F97FB0A
:1012D000991F61F09F3F79F08795089512161306C4
:1012E0001406551FF2CF4695F1DF08C016161706F3
:1012F0001806991FF1CF8695710561050894089528
:10130000E894BB2766277727CB0197F908950E94B9
:101310003A0908F48FEF08950E949F090C94100A6F
:101320000E94020A38F00E94090A20F0952311F069
:101330000C94F9090C94FF0911240C9481090E9462
:101340005E0970F3959FC1F3950F50E0551F629FA2
:10135000F001729FBB27F00DB11D639FAA27F00D0E
:10136000B11DAA1F649F6627B00DA11D661F829F35
:101370002227B00DA11D621F739FB00DA11D621F1A
:10138000839FA00D611D221F749F3327A00D611D37
:10139000231F849F600D211D822F762F6A2F112419
:1013A0009F5750409AF0F1F088234AF0EE0FFF1F4C
:1013B000BB1F661F771F881F91505040A9F79E3FA3
:1013C000510580F00C94F9090C9481095F3FE4F316
:1013D000983ED4F3869577956795B795F795E795F9
:1013E0009F5FC1F7FE2B880F911D9695879597F902
:1013F000089597F99F6780E870E060E008959FEF97
:1014000080EC089500240A9416161706180609069B
:10141000089500240A94121613061406050608956A
:10142000092E0394000C11F4882352F0BB0F40F4F2
:10143000BF2B11F460FF04C06F5F7F4F8F4F9F4F32
:101440000895F894FFCF7B04800485048A048F04F8
:0A145000940499049E04A304A80468
:10145A0048656C6C6F2046726F6D204D6963726FC0
:10146A00636F6E74726F6C6C6572200D0A00546F34
:10147A00207475726E206F6E20746865204C454426
:10148A00207072657373204120616E6420746F202E
:10149A005475726E20746865204C4544206F6666E8
:0C14AA0020707265737320440D0A00006E
:00000001FF
